{
  "contractName": "MentalHealthCoin",
  "abi": [
    {
      "inputs": [
        {
          "internalType": "string",
          "name": "_name",
          "type": "string"
        },
        {
          "internalType": "string",
          "name": "_symbol",
          "type": "string"
        },
        {
          "internalType": "uint8",
          "name": "__decimals",
          "type": "uint8"
        },
        {
          "internalType": "uint256",
          "name": "_totalSupply",
          "type": "uint256"
        }
      ],
      "stateMutability": "nonpayable",
      "type": "constructor"
    },
    {
      "anonymous": false,
      "inputs": [
        {
          "indexed": true,
          "internalType": "address",
          "name": "owner",
          "type": "address"
        },
        {
          "indexed": true,
          "internalType": "address",
          "name": "spender",
          "type": "address"
        },
        {
          "indexed": false,
          "internalType": "uint256",
          "name": "value",
          "type": "uint256"
        }
      ],
      "name": "Approval",
      "type": "event"
    },
    {
      "anonymous": false,
      "inputs": [
        {
          "indexed": true,
          "internalType": "address[]",
          "name": "blacklisted",
          "type": "address[]"
        }
      ],
      "name": "LogAddToBlacklist",
      "type": "event"
    },
    {
      "anonymous": false,
      "inputs": [
        {
          "indexed": true,
          "internalType": "address[]",
          "name": "removed",
          "type": "address[]"
        }
      ],
      "name": "LogRemoveFromBlacklist",
      "type": "event"
    },
    {
      "anonymous": false,
      "inputs": [
        {
          "indexed": true,
          "internalType": "address",
          "name": "previousOwner",
          "type": "address"
        },
        {
          "indexed": true,
          "internalType": "address",
          "name": "newOwner",
          "type": "address"
        }
      ],
      "name": "OwnershipTransferred",
      "type": "event"
    },
    {
      "anonymous": false,
      "inputs": [
        {
          "indexed": true,
          "internalType": "address",
          "name": "from",
          "type": "address"
        },
        {
          "indexed": true,
          "internalType": "address",
          "name": "to",
          "type": "address"
        },
        {
          "indexed": false,
          "internalType": "uint256",
          "name": "value",
          "type": "uint256"
        }
      ],
      "name": "Transfer",
      "type": "event"
    },
    {
      "inputs": [
        {
          "internalType": "address",
          "name": "owner",
          "type": "address"
        },
        {
          "internalType": "address",
          "name": "spender",
          "type": "address"
        }
      ],
      "name": "allowance",
      "outputs": [
        {
          "internalType": "uint256",
          "name": "",
          "type": "uint256"
        }
      ],
      "stateMutability": "view",
      "type": "function"
    },
    {
      "inputs": [
        {
          "internalType": "address",
          "name": "spender",
          "type": "address"
        },
        {
          "internalType": "uint256",
          "name": "amount",
          "type": "uint256"
        }
      ],
      "name": "approve",
      "outputs": [
        {
          "internalType": "bool",
          "name": "",
          "type": "bool"
        }
      ],
      "stateMutability": "nonpayable",
      "type": "function"
    },
    {
      "inputs": [
        {
          "internalType": "address",
          "name": "account",
          "type": "address"
        }
      ],
      "name": "balanceOf",
      "outputs": [
        {
          "internalType": "uint256",
          "name": "",
          "type": "uint256"
        }
      ],
      "stateMutability": "view",
      "type": "function"
    },
    {
      "inputs": [
        {
          "internalType": "address",
          "name": "",
          "type": "address"
        }
      ],
      "name": "blacklisted",
      "outputs": [
        {
          "internalType": "bool",
          "name": "",
          "type": "bool"
        }
      ],
      "stateMutability": "view",
      "type": "function"
    },
    {
      "inputs": [
        {
          "internalType": "address",
          "name": "spender",
          "type": "address"
        },
        {
          "internalType": "uint256",
          "name": "subtractedValue",
          "type": "uint256"
        }
      ],
      "name": "decreaseAllowance",
      "outputs": [
        {
          "internalType": "bool",
          "name": "",
          "type": "bool"
        }
      ],
      "stateMutability": "nonpayable",
      "type": "function"
    },
    {
      "inputs": [
        {
          "internalType": "address",
          "name": "spender",
          "type": "address"
        },
        {
          "internalType": "uint256",
          "name": "addedValue",
          "type": "uint256"
        }
      ],
      "name": "increaseAllowance",
      "outputs": [
        {
          "internalType": "bool",
          "name": "",
          "type": "bool"
        }
      ],
      "stateMutability": "nonpayable",
      "type": "function"
    },
    {
      "inputs": [],
      "name": "name",
      "outputs": [
        {
          "internalType": "string",
          "name": "",
          "type": "string"
        }
      ],
      "stateMutability": "view",
      "type": "function"
    },
    {
      "inputs": [],
      "name": "owner",
      "outputs": [
        {
          "internalType": "address",
          "name": "",
          "type": "address"
        }
      ],
      "stateMutability": "view",
      "type": "function"
    },
    {
      "inputs": [],
      "name": "renounceOwnership",
      "outputs": [],
      "stateMutability": "nonpayable",
      "type": "function"
    },
    {
      "inputs": [],
      "name": "symbol",
      "outputs": [
        {
          "internalType": "string",
          "name": "",
          "type": "string"
        }
      ],
      "stateMutability": "view",
      "type": "function"
    },
    {
      "inputs": [],
      "name": "totalSupply",
      "outputs": [
        {
          "internalType": "uint256",
          "name": "",
          "type": "uint256"
        }
      ],
      "stateMutability": "view",
      "type": "function"
    },
    {
      "inputs": [
        {
          "internalType": "address",
          "name": "to",
          "type": "address"
        },
        {
          "internalType": "uint256",
          "name": "amount",
          "type": "uint256"
        }
      ],
      "name": "transfer",
      "outputs": [
        {
          "internalType": "bool",
          "name": "",
          "type": "bool"
        }
      ],
      "stateMutability": "nonpayable",
      "type": "function"
    },
    {
      "inputs": [
        {
          "internalType": "address",
          "name": "from",
          "type": "address"
        },
        {
          "internalType": "address",
          "name": "to",
          "type": "address"
        },
        {
          "internalType": "uint256",
          "name": "amount",
          "type": "uint256"
        }
      ],
      "name": "transferFrom",
      "outputs": [
        {
          "internalType": "bool",
          "name": "",
          "type": "bool"
        }
      ],
      "stateMutability": "nonpayable",
      "type": "function"
    },
    {
      "inputs": [
        {
          "internalType": "address",
          "name": "newOwner",
          "type": "address"
        }
      ],
      "name": "transferOwnership",
      "outputs": [],
      "stateMutability": "nonpayable",
      "type": "function"
    },
    {
      "inputs": [],
      "name": "decimals",
      "outputs": [
        {
          "internalType": "uint8",
          "name": "",
          "type": "uint8"
        }
      ],
      "stateMutability": "view",
      "type": "function"
    },
    {
      "inputs": [
        {
          "internalType": "address[]",
          "name": "_accounts",
          "type": "address[]"
        }
      ],
      "name": "addToBlacklist",
      "outputs": [],
      "stateMutability": "nonpayable",
      "type": "function"
    },
    {
      "inputs": [
        {
          "internalType": "address[]",
          "name": "_accounts",
          "type": "address[]"
        }
      ],
      "name": "removeFromBlacklist",
      "outputs": [],
      "stateMutability": "nonpayable",
      "type": "function"
    }
  ],
  "bytecode": "0x60806040523480156200001157600080fd5b50604051620027ee380380620027ee8339818101604052810190620000379190620005ee565b838381600390816200004a9190620008df565b5080600490816200005c9190620008df565b5050506200007f62000073620000b660201b60201c565b620000be60201b60201c565b81600560146101000a81548160ff021916908360ff160217905550620000ac33826200018460201b60201c565b5050505062000b53565b600033905090565b6000600560009054906101000a900473ffffffffffffffffffffffffffffffffffffffff16905081600560006101000a81548173ffffffffffffffffffffffffffffffffffffffff021916908373ffffffffffffffffffffffffffffffffffffffff1602179055508173ffffffffffffffffffffffffffffffffffffffff168173ffffffffffffffffffffffffffffffffffffffff167f8be0079c531659141344cd1fd0a4f28419497f9722a3daafe3b4186f6b6457e060405160405180910390a35050565b600073ffffffffffffffffffffffffffffffffffffffff168273ffffffffffffffffffffffffffffffffffffffff1603620001f6576040517f08c379a0000000000000000000000000000000000000000000000000000000008152600401620001ed9062000a27565b60405180910390fd5b6200020a60008383620002f160201b60201c565b80600260008282546200021e919062000a78565b92505081905550806000808473ffffffffffffffffffffffffffffffffffffffff1673ffffffffffffffffffffffffffffffffffffffff168152602001908152602001600020600082825401925050819055508173ffffffffffffffffffffffffffffffffffffffff16600073ffffffffffffffffffffffffffffffffffffffff167fddf252ad1be2c89b69c2b068fc378daa952ba7f163c4a11628f55a4df523b3ef83604051620002d1919062000ac4565b60405180910390a3620002ed60008383620003dd60201b60201c565b5050565b600660008473ffffffffffffffffffffffffffffffffffffffff1673ffffffffffffffffffffffffffffffffffffffff16815260200190815260200160002060009054906101000a900460ff16158015620003965750600660008373ffffffffffffffffffffffffffffffffffffffff1673ffffffffffffffffffffffffffffffffffffffff16815260200190815260200160002060009054906101000a900460ff16155b620003d8576040517f08c379a0000000000000000000000000000000000000000000000000000000008152600401620003cf9062000b31565b60405180910390fd5b505050565b505050565b6000604051905090565b600080fd5b600080fd5b600080fd5b600080fd5b6000601f19601f8301169050919050565b7f4e487b7100000000000000000000000000000000000000000000000000000000600052604160045260246000fd5b6200044b8262000400565b810181811067ffffffffffffffff821117156200046d576200046c62000411565b5b80604052505050565b600062000482620003e2565b905062000490828262000440565b919050565b600067ffffffffffffffff821115620004b357620004b262000411565b5b620004be8262000400565b9050602081019050919050565b60005b83811015620004eb578082015181840152602081019050620004ce565b60008484015250505050565b60006200050e620005088462000495565b62000476565b9050828152602081018484840111156200052d576200052c620003fb565b5b6200053a848285620004cb565b509392505050565b600082601f8301126200055a5762000559620003f6565b5b81516200056c848260208601620004f7565b91505092915050565b600060ff82169050919050565b6200058d8162000575565b81146200059957600080fd5b50565b600081519050620005ad8162000582565b92915050565b6000819050919050565b620005c881620005b3565b8114620005d457600080fd5b50565b600081519050620005e881620005bd565b92915050565b600080600080608085870312156200060b576200060a620003ec565b5b600085015167ffffffffffffffff8111156200062c576200062b620003f1565b5b6200063a8782880162000542565b945050602085015167ffffffffffffffff8111156200065e576200065d620003f1565b5b6200066c8782880162000542565b93505060406200067f878288016200059c565b92505060606200069287828801620005d7565b91505092959194509250565b600081519050919050565b7f4e487b7100000000000000000000000000000000000000000000000000000000600052602260045260246000fd5b60006002820490506001821680620006f157607f821691505b602082108103620007075762000706620006a9565b5b50919050565b60008190508160005260206000209050919050565b60006020601f8301049050919050565b600082821b905092915050565b600060088302620007717fffffffffffffffffffffffffffffffffffffffffffffffffffffffffffffffff8262000732565b6200077d868362000732565b95508019841693508086168417925050509392505050565b6000819050919050565b6000620007c0620007ba620007b484620005b3565b62000795565b620005b3565b9050919050565b6000819050919050565b620007dc836200079f565b620007f4620007eb82620007c7565b8484546200073f565b825550505050565b600090565b6200080b620007fc565b62000818818484620007d1565b505050565b5b8181101562000840576200083460008262000801565b6001810190506200081e565b5050565b601f8211156200088f5762000859816200070d565b620008648462000722565b8101602085101562000874578190505b6200088c620008838562000722565b8301826200081d565b50505b505050565b600082821c905092915050565b6000620008b46000198460080262000894565b1980831691505092915050565b6000620008cf8383620008a1565b9150826002028217905092915050565b620008ea826200069e565b67ffffffffffffffff81111562000906576200090562000411565b5b620009128254620006d8565b6200091f82828562000844565b600060209050601f83116001811462000957576000841562000942578287015190505b6200094e8582620008c1565b865550620009be565b601f19841662000967866200070d565b60005b8281101562000991578489015182556001820191506020850194506020810190506200096a565b86831015620009b15784890151620009ad601f891682620008a1565b8355505b6001600288020188555050505b505050505050565b600082825260208201905092915050565b7f45524332303a206d696e7420746f20746865207a65726f206164647265737300600082015250565b600062000a0f601f83620009c6565b915062000a1c82620009d7565b602082019050919050565b6000602082019050818103600083015262000a428162000a00565b9050919050565b7f4e487b7100000000000000000000000000000000000000000000000000000000600052601160045260246000fd5b600062000a8582620005b3565b915062000a9283620005b3565b925082820190508082111562000aad5762000aac62000a49565b5b92915050565b62000abe81620005b3565b82525050565b600060208201905062000adb600083018462000ab3565b92915050565b7f45524332303a20626c61636b6c69737465642061646472657373000000000000600082015250565b600062000b19601a83620009c6565b915062000b268262000ae1565b602082019050919050565b6000602082019050818103600083015262000b4c8162000b0a565b9050919050565b611c8b8062000b636000396000f3fe608060405234801561001057600080fd5b506004361061010b5760003560e01c806389daf799116100a2578063a457c2d711610071578063a457c2d7146102a8578063a9059cbb146102d8578063dbac26e914610308578063dd62ed3e14610338578063f2fde38b146103685761010b565b806389daf799146102345780638da5cb5b14610250578063935eb35f1461026e57806395d89b411461028a5761010b565b8063313ce567116100de578063313ce567146101ac57806339509351146101ca57806370a08231146101fa578063715018a61461022a5761010b565b806306fdde0314610110578063095ea7b31461012e57806318160ddd1461015e57806323b872dd1461017c575b600080fd5b610118610384565b60405161012591906110ee565b60405180910390f35b610148600480360381019061014391906111b8565b610416565b6040516101559190611213565b60405180910390f35b610166610439565b604051610173919061123d565b60405180910390f35b61019660048036038101906101919190611258565b610443565b6040516101a39190611213565b60405180910390f35b6101b4610472565b6040516101c191906112c7565b60405180910390f35b6101e460048036038101906101df91906111b8565b610489565b6040516101f19190611213565b60405180910390f35b610214600480360381019061020f91906112e2565b6104c0565b604051610221919061123d565b60405180910390f35b610232610508565b005b61024e60048036038101906102499190611457565b61051c565b005b6102586105fb565b60405161026591906114af565b60405180910390f35b61028860048036038101906102839190611457565b610625565b005b610292610704565b60405161029f91906110ee565b60405180910390f35b6102c260048036038101906102bd91906111b8565b610796565b6040516102cf9190611213565b60405180910390f35b6102f260048036038101906102ed91906111b8565b61080d565b6040516102ff9190611213565b60405180910390f35b610322600480360381019061031d91906112e2565b610830565b60405161032f9190611213565b60405180910390f35b610352600480360381019061034d91906114ca565b610850565b60405161035f919061123d565b60405180910390f35b610382600480360381019061037d91906112e2565b6108d7565b005b60606003805461039390611539565b80601f01602080910402602001604051908101604052809291908181526020018280546103bf90611539565b801561040c5780601f106103e15761010080835404028352916020019161040c565b820191906000526020600020905b8154815290600101906020018083116103ef57829003601f168201915b5050505050905090565b60008061042161095a565b905061042e818585610962565b600191505092915050565b6000600254905090565b60008061044e61095a565b905061045b858285610b2b565b610466858585610bb7565b60019150509392505050565b6000600560149054906101000a900460ff16905090565b60008061049461095a565b90506104b58185856104a68589610850565b6104b09190611599565b610962565b600191505092915050565b60008060008373ffffffffffffffffffffffffffffffffffffffff1673ffffffffffffffffffffffffffffffffffffffff168152602001908152602001600020549050919050565b610510610e2d565b61051a6000610eab565b565b610524610e2d565b60005b81518110156105b557600060066000848481518110610549576105486115cd565b5b602002602001015173ffffffffffffffffffffffffffffffffffffffff1673ffffffffffffffffffffffffffffffffffffffff16815260200190815260200160002060006101000a81548160ff02191690831515021790555080806105ad906115fc565b915050610527565b50806040516105c491906116fc565b60405180910390207f2aeef244739d0f2066344f0fc05a07a0434de53daace697f780d8660b4c6b2f260405160405180910390a250565b6000600560009054906101000a900473ffffffffffffffffffffffffffffffffffffffff16905090565b61062d610e2d565b60005b81518110156106be57600160066000848481518110610652576106516115cd565b5b602002602001015173ffffffffffffffffffffffffffffffffffffffff1673ffffffffffffffffffffffffffffffffffffffff16815260200190815260200160002060006101000a81548160ff02191690831515021790555080806106b6906115fc565b915050610630565b50806040516106cd91906116fc565b60405180910390207f8eaaaea6f77c65cfde1859af8365ec18cb9f0db5762cb2f5cc798ab93748c55260405160405180910390a250565b60606004805461071390611539565b80601f016020809104026020016040519081016040528092919081815260200182805461073f90611539565b801561078c5780601f106107615761010080835404028352916020019161078c565b820191906000526020600020905b81548152906001019060200180831161076f57829003601f168201915b5050505050905090565b6000806107a161095a565b905060006107af8286610850565b9050838110156107f4576040517f08c379a00000000000000000000000000000000000000000000000000000000081526004016107eb90611785565b60405180910390fd5b6108018286868403610962565b60019250505092915050565b60008061081861095a565b9050610825818585610bb7565b600191505092915050565b60066020528060005260406000206000915054906101000a900460ff1681565b6000600160008473ffffffffffffffffffffffffffffffffffffffff1673ffffffffffffffffffffffffffffffffffffffff16815260200190815260200160002060008373ffffffffffffffffffffffffffffffffffffffff1673ffffffffffffffffffffffffffffffffffffffff16815260200190815260200160002054905092915050565b6108df610e2d565b600073ffffffffffffffffffffffffffffffffffffffff168173ffffffffffffffffffffffffffffffffffffffff160361094e576040517f08c379a000000000000000000000000000000000000000000000000000000000815260040161094590611817565b60405180910390fd5b61095781610eab565b50565b600033905090565b600073ffffffffffffffffffffffffffffffffffffffff168373ffffffffffffffffffffffffffffffffffffffff16036109d1576040517f08c379a00000000000000000000000000000000000000000000000000000000081526004016109c8906118a9565b60405180910390fd5b600073ffffffffffffffffffffffffffffffffffffffff168273ffffffffffffffffffffffffffffffffffffffff1603610a40576040517f08c379a0000000000000000000000000000000000000000000000000000000008152600401610a379061193b565b60405180910390fd5b80600160008573ffffffffffffffffffffffffffffffffffffffff1673ffffffffffffffffffffffffffffffffffffffff16815260200190815260200160002060008473ffffffffffffffffffffffffffffffffffffffff1673ffffffffffffffffffffffffffffffffffffffff168152602001908152602001600020819055508173ffffffffffffffffffffffffffffffffffffffff168373ffffffffffffffffffffffffffffffffffffffff167f8c5be1e5ebec7d5bd14f71427d1e84f3dd0314c0f7b2291e5b200ac8c7c3b92583604051610b1e919061123d565b60405180910390a3505050565b6000610b378484610850565b90507fffffffffffffffffffffffffffffffffffffffffffffffffffffffffffffffff8114610bb15781811015610ba3576040517f08c379a0000000000000000000000000000000000000000000000000000000008152600401610b9a906119a7565b60405180910390fd5b610bb08484848403610962565b5b50505050565b600073ffffffffffffffffffffffffffffffffffffffff168373ffffffffffffffffffffffffffffffffffffffff1603610c26576040517f08c379a0000000000000000000000000000000000000000000000000000000008152600401610c1d90611a39565b60405180910390fd5b600073ffffffffffffffffffffffffffffffffffffffff168273ffffffffffffffffffffffffffffffffffffffff1603610c95576040517f08c379a0000000000000000000000000000000000000000000000000000000008152600401610c8c90611acb565b60405180910390fd5b610ca0838383610f71565b60008060008573ffffffffffffffffffffffffffffffffffffffff1673ffffffffffffffffffffffffffffffffffffffff16815260200190815260200160002054905081811015610d26576040517f08c379a0000000000000000000000000000000000000000000000000000000008152600401610d1d90611b5d565b60405180910390fd5b8181036000808673ffffffffffffffffffffffffffffffffffffffff1673ffffffffffffffffffffffffffffffffffffffff16815260200190815260200160002081905550816000808573ffffffffffffffffffffffffffffffffffffffff1673ffffffffffffffffffffffffffffffffffffffff168152602001908152602001600020600082825401925050819055508273ffffffffffffffffffffffffffffffffffffffff168473ffffffffffffffffffffffffffffffffffffffff167fddf252ad1be2c89b69c2b068fc378daa952ba7f163c4a11628f55a4df523b3ef84604051610e14919061123d565b60405180910390a3610e27848484611059565b50505050565b610e3561095a565b73ffffffffffffffffffffffffffffffffffffffff16610e536105fb565b73ffffffffffffffffffffffffffffffffffffffff1614610ea9576040517f08c379a0000000000000000000000000000000000000000000000000000000008152600401610ea090611bc9565b60405180910390fd5b565b6000600560009054906101000a900473ffffffffffffffffffffffffffffffffffffffff16905081600560006101000a81548173ffffffffffffffffffffffffffffffffffffffff021916908373ffffffffffffffffffffffffffffffffffffffff1602179055508173ffffffffffffffffffffffffffffffffffffffff168173ffffffffffffffffffffffffffffffffffffffff167f8be0079c531659141344cd1fd0a4f28419497f9722a3daafe3b4186f6b6457e060405160405180910390a35050565b600660008473ffffffffffffffffffffffffffffffffffffffff1673ffffffffffffffffffffffffffffffffffffffff16815260200190815260200160002060009054906101000a900460ff161580156110155750600660008373ffffffffffffffffffffffffffffffffffffffff1673ffffffffffffffffffffffffffffffffffffffff16815260200190815260200160002060009054906101000a900460ff16155b611054576040517f08c379a000000000000000000000000000000000000000000000000000000000815260040161104b90611c35565b60405180910390fd5b505050565b505050565b600081519050919050565b600082825260208201905092915050565b60005b8381101561109857808201518184015260208101905061107d565b60008484015250505050565b6000601f19601f8301169050919050565b60006110c08261105e565b6110ca8185611069565b93506110da81856020860161107a565b6110e3816110a4565b840191505092915050565b6000602082019050818103600083015261110881846110b5565b905092915050565b6000604051905090565b600080fd5b600080fd5b600073ffffffffffffffffffffffffffffffffffffffff82169050919050565b600061114f82611124565b9050919050565b61115f81611144565b811461116a57600080fd5b50565b60008135905061117c81611156565b92915050565b6000819050919050565b61119581611182565b81146111a057600080fd5b50565b6000813590506111b28161118c565b92915050565b600080604083850312156111cf576111ce61111a565b5b60006111dd8582860161116d565b92505060206111ee858286016111a3565b9150509250929050565b60008115159050919050565b61120d816111f8565b82525050565b60006020820190506112286000830184611204565b92915050565b61123781611182565b82525050565b6000602082019050611252600083018461122e565b92915050565b6000806000606084860312156112715761127061111a565b5b600061127f8682870161116d565b93505060206112908682870161116d565b92505060406112a1868287016111a3565b9150509250925092565b600060ff82169050919050565b6112c1816112ab565b82525050565b60006020820190506112dc60008301846112b8565b92915050565b6000602082840312156112f8576112f761111a565b5b60006113068482850161116d565b91505092915050565b600080fd5b7f4e487b7100000000000000000000000000000000000000000000000000000000600052604160045260246000fd5b61134c826110a4565b810181811067ffffffffffffffff8211171561136b5761136a611314565b5b80604052505050565b600061137e611110565b905061138a8282611343565b919050565b600067ffffffffffffffff8211156113aa576113a9611314565b5b602082029050602081019050919050565b600080fd5b60006113d36113ce8461138f565b611374565b905080838252602082019050602084028301858111156113f6576113f56113bb565b5b835b8181101561141f578061140b888261116d565b8452602084019350506020810190506113f8565b5050509392505050565b600082601f83011261143e5761143d61130f565b5b813561144e8482602086016113c0565b91505092915050565b60006020828403121561146d5761146c61111a565b5b600082013567ffffffffffffffff81111561148b5761148a61111f565b5b61149784828501611429565b91505092915050565b6114a981611144565b82525050565b60006020820190506114c460008301846114a0565b92915050565b600080604083850312156114e1576114e061111a565b5b60006114ef8582860161116d565b92505060206115008582860161116d565b9150509250929050565b7f4e487b7100000000000000000000000000000000000000000000000000000000600052602260045260246000fd5b6000600282049050600182168061155157607f821691505b6020821081036115645761156361150a565b5b50919050565b7f4e487b7100000000000000000000000000000000000000000000000000000000600052601160045260246000fd5b60006115a482611182565b91506115af83611182565b92508282019050808211156115c7576115c661156a565b5b92915050565b7f4e487b7100000000000000000000000000000000000000000000000000000000600052603260045260246000fd5b600061160782611182565b91507fffffffffffffffffffffffffffffffffffffffffffffffffffffffffffffffff82036116395761163861156a565b5b600182019050919050565b600081519050919050565b600081905092915050565b6000819050602082019050919050565b61167381611144565b82525050565b6000611685838361166a565b60208301905092915050565b6000602082019050919050565b60006116a982611644565b6116b3818561164f565b93506116be8361165a565b8060005b838110156116ef5781516116d68882611679565b97506116e183611691565b9250506001810190506116c2565b5085935050505092915050565b6000611708828461169e565b915081905092915050565b7f45524332303a2064656372656173656420616c6c6f77616e63652062656c6f7760008201527f207a65726f000000000000000000000000000000000000000000000000000000602082015250565b600061176f602583611069565b915061177a82611713565b604082019050919050565b6000602082019050818103600083015261179e81611762565b9050919050565b7f4f776e61626c653a206e6577206f776e657220697320746865207a65726f206160008201527f6464726573730000000000000000000000000000000000000000000000000000602082015250565b6000611801602683611069565b915061180c826117a5565b604082019050919050565b60006020820190508181036000830152611830816117f4565b9050919050565b7f45524332303a20617070726f76652066726f6d20746865207a65726f2061646460008201527f7265737300000000000000000000000000000000000000000000000000000000602082015250565b6000611893602483611069565b915061189e82611837565b604082019050919050565b600060208201905081810360008301526118c281611886565b9050919050565b7f45524332303a20617070726f766520746f20746865207a65726f20616464726560008201527f7373000000000000000000000000000000000000000000000000000000000000602082015250565b6000611925602283611069565b9150611930826118c9565b604082019050919050565b6000602082019050818103600083015261195481611918565b9050919050565b7f45524332303a20696e73756666696369656e7420616c6c6f77616e6365000000600082015250565b6000611991601d83611069565b915061199c8261195b565b602082019050919050565b600060208201905081810360008301526119c081611984565b9050919050565b7f45524332303a207472616e736665722066726f6d20746865207a65726f20616460008201527f6472657373000000000000000000000000000000000000000000000000000000602082015250565b6000611a23602583611069565b9150611a2e826119c7565b604082019050919050565b60006020820190508181036000830152611a5281611a16565b9050919050565b7f45524332303a207472616e7366657220746f20746865207a65726f206164647260008201527f6573730000000000000000000000000000000000000000000000000000000000602082015250565b6000611ab5602383611069565b9150611ac082611a59565b604082019050919050565b60006020820190508181036000830152611ae481611aa8565b9050919050565b7f45524332303a207472616e7366657220616d6f756e742065786365656473206260008201527f616c616e63650000000000000000000000000000000000000000000000000000602082015250565b6000611b47602683611069565b9150611b5282611aeb565b604082019050919050565b60006020820190508181036000830152611b7681611b3a565b9050919050565b7f4f776e61626c653a2063616c6c6572206973206e6f7420746865206f776e6572600082015250565b6000611bb3602083611069565b9150611bbe82611b7d565b602082019050919050565b60006020820190508181036000830152611be281611ba6565b9050919050565b7f45524332303a20626c61636b6c69737465642061646472657373000000000000600082015250565b6000611c1f601a83611069565b9150611c2a82611be9565b602082019050919050565b60006020820190508181036000830152611c4e81611c12565b905091905056fea264697066735822122004391ba39d16c6d561d5eac4663134f87a2e54a05e4eb884d89bccbd4dafe4c564736f6c63430008110033",
  "immutableReferences": {},
  "source": "// SPDX-License-Identifier: MIT\r\npragma solidity 0.8.17;\r\n\r\nimport \"@openzeppelin/contracts/token/ERC20/ERC20.sol\";\r\nimport \"@openzeppelin/contracts/access/Ownable.sol\";\r\ncontract MentalHealthCoin is ERC20, Ownable {\r\n    uint8 private _decimals;\r\n    mapping(address => bool) public blacklisted;\r\n    event LogAddToBlacklist(address[] indexed blacklisted);\r\n    event LogRemoveFromBlacklist(address[] indexed removed);\r\n    constructor(\r\n        string memory _name,\r\n        string memory _symbol,\r\n        uint8 __decimals,\r\n        uint256 _totalSupply\r\n    ) ERC20(_name, _symbol) {       \r\n        _decimals=__decimals;\r\n        _mint(msg.sender, _totalSupply);\r\n    }\r\n    function decimals() public view override returns (uint8) {\r\n        return _decimals;\r\n    }\r\n    function _beforeTokenTransfer(\r\n        address from,\r\n        address to,\r\n        uint256 amount\r\n    ) internal view override {\r\n        require(!blacklisted[from] && !blacklisted[to], \"ERC20: blacklisted address\");\r\n    }\r\n\r\n    function addToBlacklist(address[] memory _accounts)\r\n        public\r\n        onlyOwner\r\n    {\r\n        for (uint256 i = 0; i < _accounts.length; i++) {\r\n            blacklisted[_accounts[i]] = true;\r\n        }\r\n        emit LogAddToBlacklist(_accounts);\r\n    }\r\n\r\n    function removeFromBlacklist(address[] memory _accounts)\r\n        public\r\n        onlyOwner\r\n    {\r\n        for (uint256 i = 0; i < _accounts.length; i++) {\r\n            blacklisted[_accounts[i]] = false;\r\n        }\r\n        emit LogRemoveFromBlacklist(_accounts);\r\n    }\r\n}",
  "sourcePath": "C:\\Users\\ralph\\OneDrive\\Home\\truffle\\contracts\\MentalHealthCoin.sol",
  "compiler": {
    "name": "solc",
    "version": "0.8.17+commit.8df45f5f.Emscripten.clang"
  },
  "schemaVersion": "3.4.11",
  "updatedAt": "2022-12-01T02:35:05.882Z",
  "devdoc": {
    "kind": "dev",
    "methods": {
      "allowance(address,address)": {
        "details": "See {IERC20-allowance}."
      },
      "approve(address,uint256)": {
        "details": "See {IERC20-approve}. NOTE: If `amount` is the maximum `uint256`, the allowance is not updated on `transferFrom`. This is semantically equivalent to an infinite approval. Requirements: - `spender` cannot be the zero address."
      },
      "balanceOf(address)": {
        "details": "See {IERC20-balanceOf}."
      },
      "decimals()": {
        "details": "Returns the number of decimals used to get its user representation. For example, if `decimals` equals `2`, a balance of `505` tokens should be displayed to a user as `5.05` (`505 / 10 ** 2`). Tokens usually opt for a value of 18, imitating the relationship between Ether and Wei. This is the value {ERC20} uses, unless this function is overridden; NOTE: This information is only used for _display_ purposes: it in no way affects any of the arithmetic of the contract, including {IERC20-balanceOf} and {IERC20-transfer}."
      },
      "decreaseAllowance(address,uint256)": {
        "details": "Atomically decreases the allowance granted to `spender` by the caller. This is an alternative to {approve} that can be used as a mitigation for problems described in {IERC20-approve}. Emits an {Approval} event indicating the updated allowance. Requirements: - `spender` cannot be the zero address. - `spender` must have allowance for the caller of at least `subtractedValue`."
      },
      "increaseAllowance(address,uint256)": {
        "details": "Atomically increases the allowance granted to `spender` by the caller. This is an alternative to {approve} that can be used as a mitigation for problems described in {IERC20-approve}. Emits an {Approval} event indicating the updated allowance. Requirements: - `spender` cannot be the zero address."
      },
      "name()": {
        "details": "Returns the name of the token."
      },
      "owner()": {
        "details": "Returns the address of the current owner."
      },
      "renounceOwnership()": {
        "details": "Leaves the contract without owner. It will not be possible to call `onlyOwner` functions anymore. Can only be called by the current owner. NOTE: Renouncing ownership will leave the contract without an owner, thereby removing any functionality that is only available to the owner."
      },
      "symbol()": {
        "details": "Returns the symbol of the token, usually a shorter version of the name."
      },
      "totalSupply()": {
        "details": "See {IERC20-totalSupply}."
      },
      "transfer(address,uint256)": {
        "details": "See {IERC20-transfer}. Requirements: - `to` cannot be the zero address. - the caller must have a balance of at least `amount`."
      },
      "transferFrom(address,address,uint256)": {
        "details": "See {IERC20-transferFrom}. Emits an {Approval} event indicating the updated allowance. This is not required by the EIP. See the note at the beginning of {ERC20}. NOTE: Does not update the allowance if the current allowance is the maximum `uint256`. Requirements: - `from` and `to` cannot be the zero address. - `from` must have a balance of at least `amount`. - the caller must have allowance for ``from``'s tokens of at least `amount`."
      },
      "transferOwnership(address)": {
        "details": "Transfers ownership of the contract to a new account (`newOwner`). Can only be called by the current owner."
      }
    },
    "version": 1
  },
  "userdoc": {
    "kind": "user",
    "methods": {},
    "version": 1
  }
}